{
  "_format": "hh-sol-artifact-1",
  "contractName": "ResumeAccessChip",
  "sourceName": "contracts/ResumeAccessChip.sol",
  "abi": [
    {
      "inputs": [
        {
          "internalType": "string",
          "name": "_uri",
          "type": "string"
        }
      ],
      "stateMutability": "nonpayable",
      "type": "constructor"
    },
    {
      "inputs": [],
      "name": "ChipAlreadyBurned",
      "type": "error"
    },
    {
      "inputs": [],
      "name": "ChipExhausted",
      "type": "error"
    },
    {
      "inputs": [],
      "name": "ChipExpired",
      "type": "error"
    },
    {
      "inputs": [],
      "name": "ChipNotExists",
      "type": "error"
    },
    {
      "inputs": [
        {
          "internalType": "address",
          "name": "sender",
          "type": "address"
        },
        {
          "internalType": "uint256",
          "name": "balance",
          "type": "uint256"
        },
        {
          "internalType": "uint256",
          "name": "needed",
          "type": "uint256"
        },
        {
          "internalType": "uint256",
          "name": "tokenId",
          "type": "uint256"
        }
      ],
      "name": "ERC1155InsufficientBalance",
      "type": "error"
    },
    {
      "inputs": [
        {
          "internalType": "address",
          "name": "approver",
          "type": "address"
        }
      ],
      "name": "ERC1155InvalidApprover",
      "type": "error"
    },
    {
      "inputs": [
        {
          "internalType": "uint256",
          "name": "idsLength",
          "type": "uint256"
        },
        {
          "internalType": "uint256",
          "name": "valuesLength",
          "type": "uint256"
        }
      ],
      "name": "ERC1155InvalidArrayLength",
      "type": "error"
    },
    {
      "inputs": [
        {
          "internalType": "address",
          "name": "operator",
          "type": "address"
        }
      ],
      "name": "ERC1155InvalidOperator",
      "type": "error"
    },
    {
      "inputs": [
        {
          "internalType": "address",
          "name": "receiver",
          "type": "address"
        }
      ],
      "name": "ERC1155InvalidReceiver",
      "type": "error"
    },
    {
      "inputs": [
        {
          "internalType": "address",
          "name": "sender",
          "type": "address"
        }
      ],
      "name": "ERC1155InvalidSender",
      "type": "error"
    },
    {
      "inputs": [
        {
          "internalType": "address",
          "name": "operator",
          "type": "address"
        },
        {
          "internalType": "address",
          "name": "owner",
          "type": "address"
        }
      ],
      "name": "ERC1155MissingApprovalForAll",
      "type": "error"
    },
    {
      "inputs": [],
      "name": "EnforcedPause",
      "type": "error"
    },
    {
      "inputs": [],
      "name": "ExpectedPause",
      "type": "error"
    },
    {
      "inputs": [],
      "name": "NotAuthorized",
      "type": "error"
    },
    {
      "inputs": [
        {
          "internalType": "address",
          "name": "owner",
          "type": "address"
        }
      ],
      "name": "OwnableInvalidOwner",
      "type": "error"
    },
    {
      "inputs": [
        {
          "internalType": "address",
          "name": "account",
          "type": "address"
        }
      ],
      "name": "OwnableUnauthorizedAccount",
      "type": "error"
    },
    {
      "inputs": [],
      "name": "ZeroAddress",
      "type": "error"
    },
    {
      "anonymous": false,
      "inputs": [
        {
          "indexed": true,
          "internalType": "address",
          "name": "account",
          "type": "address"
        },
        {
          "indexed": true,
          "internalType": "address",
          "name": "operator",
          "type": "address"
        },
        {
          "indexed": false,
          "internalType": "bool",
          "name": "approved",
          "type": "bool"
        }
      ],
      "name": "ApprovalForAll",
      "type": "event"
    },
    {
      "anonymous": false,
      "inputs": [
        {
          "indexed": true,
          "internalType": "uint256",
          "name": "chipId",
          "type": "uint256"
        },
        {
          "indexed": true,
          "internalType": "address",
          "name": "burner",
          "type": "address"
        },
        {
          "indexed": true,
          "internalType": "address",
          "name": "viewer",
          "type": "address"
        }
      ],
      "name": "ChipBurned",
      "type": "event"
    },
    {
      "anonymous": false,
      "inputs": [
        {
          "indexed": true,
          "internalType": "address",
          "name": "minter",
          "type": "address"
        },
        {
          "indexed": true,
          "internalType": "uint256",
          "name": "chipId",
          "type": "uint256"
        },
        {
          "indexed": false,
          "internalType": "uint256",
          "name": "expiry",
          "type": "uint256"
        },
        {
          "indexed": false,
          "internalType": "uint256",
          "name": "maxViews",
          "type": "uint256"
        },
        {
          "indexed": false,
          "internalType": "uint256",
          "name": "scopeTokenId",
          "type": "uint256"
        }
      ],
      "name": "ChipMinted",
      "type": "event"
    },
    {
      "anonymous": false,
      "inputs": [
        {
          "indexed": true,
          "internalType": "address",
          "name": "previousOwner",
          "type": "address"
        },
        {
          "indexed": true,
          "internalType": "address",
          "name": "newOwner",
          "type": "address"
        }
      ],
      "name": "OwnershipTransferred",
      "type": "event"
    },
    {
      "anonymous": false,
      "inputs": [
        {
          "indexed": false,
          "internalType": "address",
          "name": "account",
          "type": "address"
        }
      ],
      "name": "Paused",
      "type": "event"
    },
    {
      "anonymous": false,
      "inputs": [
        {
          "indexed": true,
          "internalType": "uint256",
          "name": "chipId",
          "type": "uint256"
        },
        {
          "indexed": true,
          "internalType": "address",
          "name": "viewer",
          "type": "address"
        },
        {
          "indexed": false,
          "internalType": "uint256",
          "name": "viewCount",
          "type": "uint256"
        }
      ],
      "name": "ResumeViewed",
      "type": "event"
    },
    {
      "anonymous": false,
      "inputs": [
        {
          "indexed": true,
          "internalType": "address",
          "name": "operator",
          "type": "address"
        },
        {
          "indexed": true,
          "internalType": "address",
          "name": "from",
          "type": "address"
        },
        {
          "indexed": true,
          "internalType": "address",
          "name": "to",
          "type": "address"
        },
        {
          "indexed": false,
          "internalType": "uint256[]",
          "name": "ids",
          "type": "uint256[]"
        },
        {
          "indexed": false,
          "internalType": "uint256[]",
          "name": "values",
          "type": "uint256[]"
        }
      ],
      "name": "TransferBatch",
      "type": "event"
    },
    {
      "anonymous": false,
      "inputs": [
        {
          "indexed": true,
          "internalType": "address",
          "name": "operator",
          "type": "address"
        },
        {
          "indexed": true,
          "internalType": "address",
          "name": "from",
          "type": "address"
        },
        {
          "indexed": true,
          "internalType": "address",
          "name": "to",
          "type": "address"
        },
        {
          "indexed": false,
          "internalType": "uint256",
          "name": "id",
          "type": "uint256"
        },
        {
          "indexed": false,
          "internalType": "uint256",
          "name": "value",
          "type": "uint256"
        }
      ],
      "name": "TransferSingle",
      "type": "event"
    },
    {
      "anonymous": false,
      "inputs": [
        {
          "indexed": false,
          "internalType": "string",
          "name": "value",
          "type": "string"
        },
        {
          "indexed": true,
          "internalType": "uint256",
          "name": "id",
          "type": "uint256"
        }
      ],
      "name": "URI",
      "type": "event"
    },
    {
      "anonymous": false,
      "inputs": [
        {
          "indexed": false,
          "internalType": "address",
          "name": "account",
          "type": "address"
        }
      ],
      "name": "Unpaused",
      "type": "event"
    },
    {
      "inputs": [
        {
          "internalType": "address",
          "name": "account",
          "type": "address"
        },
        {
          "internalType": "uint256",
          "name": "id",
          "type": "uint256"
        }
      ],
      "name": "balanceOf",
      "outputs": [
        {
          "internalType": "uint256",
          "name": "",
          "type": "uint256"
        }
      ],
      "stateMutability": "view",
      "type": "function"
    },
    {
      "inputs": [
        {
          "internalType": "address[]",
          "name": "accounts",
          "type": "address[]"
        },
        {
          "internalType": "uint256[]",
          "name": "ids",
          "type": "uint256[]"
        }
      ],
      "name": "balanceOfBatch",
      "outputs": [
        {
          "internalType": "uint256[]",
          "name": "",
          "type": "uint256[]"
        }
      ],
      "stateMutability": "view",
      "type": "function"
    },
    {
      "inputs": [
        {
          "internalType": "uint256",
          "name": "chipId",
          "type": "uint256"
        },
        {
          "internalType": "address",
          "name": "viewer",
          "type": "address"
        }
      ],
      "name": "burnAndVerifyAccess",
      "outputs": [
        {
          "internalType": "bool",
          "name": "",
          "type": "bool"
        }
      ],
      "stateMutability": "nonpayable",
      "type": "function"
    },
    {
      "inputs": [
        {
          "internalType": "uint256",
          "name": "",
          "type": "uint256"
        }
      ],
      "name": "chips",
      "outputs": [
        {
          "internalType": "address",
          "name": "minter",
          "type": "address"
        },
        {
          "internalType": "uint256",
          "name": "expiry",
          "type": "uint256"
        },
        {
          "internalType": "uint256",
          "name": "maxViews",
          "type": "uint256"
        },
        {
          "internalType": "uint256",
          "name": "currentViews",
          "type": "uint256"
        },
        {
          "internalType": "uint256",
          "name": "scopeTokenId",
          "type": "uint256"
        },
        {
          "internalType": "string",
          "name": "resumeURI",
          "type": "string"
        },
        {
          "internalType": "bool",
          "name": "burned",
          "type": "bool"
        }
      ],
      "stateMutability": "view",
      "type": "function"
    },
    {
      "inputs": [
        {
          "internalType": "uint256",
          "name": "chipId",
          "type": "uint256"
        }
      ],
      "name": "getChipData",
      "outputs": [
        {
          "components": [
            {
              "internalType": "address",
              "name": "minter",
              "type": "address"
            },
            {
              "internalType": "uint256",
              "name": "expiry",
              "type": "uint256"
            },
            {
              "internalType": "uint256",
              "name": "maxViews",
              "type": "uint256"
            },
            {
              "internalType": "uint256",
              "name": "currentViews",
              "type": "uint256"
            },
            {
              "internalType": "uint256",
              "name": "scopeTokenId",
              "type": "uint256"
            },
            {
              "internalType": "string",
              "name": "resumeURI",
              "type": "string"
            },
            {
              "internalType": "bool",
              "name": "burned",
              "type": "bool"
            }
          ],
          "internalType": "struct ResumeAccessChip.ChipData",
          "name": "",
          "type": "tuple"
        }
      ],
      "stateMutability": "view",
      "type": "function"
    },
    {
      "inputs": [
        {
          "internalType": "address",
          "name": "holder",
          "type": "address"
        }
      ],
      "name": "getHolderChips",
      "outputs": [
        {
          "internalType": "uint256[]",
          "name": "",
          "type": "uint256[]"
        }
      ],
      "stateMutability": "view",
      "type": "function"
    },
    {
      "inputs": [
        {
          "internalType": "address",
          "name": "holder",
          "type": "address"
        }
      ],
      "name": "getValidChips",
      "outputs": [
        {
          "internalType": "uint256[]",
          "name": "",
          "type": "uint256[]"
        }
      ],
      "stateMutability": "view",
      "type": "function"
    },
    {
      "inputs": [
        {
          "internalType": "address",
          "name": "",
          "type": "address"
        },
        {
          "internalType": "uint256",
          "name": "",
          "type": "uint256"
        }
      ],
      "name": "holderChips",
      "outputs": [
        {
          "internalType": "uint256",
          "name": "",
          "type": "uint256"
        }
      ],
      "stateMutability": "view",
      "type": "function"
    },
    {
      "inputs": [
        {
          "internalType": "address",
          "name": "account",
          "type": "address"
        },
        {
          "internalType": "address",
          "name": "operator",
          "type": "address"
        }
      ],
      "name": "isApprovedForAll",
      "outputs": [
        {
          "internalType": "bool",
          "name": "",
          "type": "bool"
        }
      ],
      "stateMutability": "view",
      "type": "function"
    },
    {
      "inputs": [
        {
          "internalType": "uint256",
          "name": "chipId",
          "type": "uint256"
        }
      ],
      "name": "isChipValid",
      "outputs": [
        {
          "internalType": "bool",
          "name": "",
          "type": "bool"
        }
      ],
      "stateMutability": "view",
      "type": "function"
    },
    {
      "inputs": [
        {
          "internalType": "address",
          "name": "to",
          "type": "address"
        },
        {
          "internalType": "uint256",
          "name": "expiry",
          "type": "uint256"
        },
        {
          "internalType": "uint256",
          "name": "maxViews",
          "type": "uint256"
        },
        {
          "internalType": "uint256",
          "name": "scopeTokenId",
          "type": "uint256"
        },
        {
          "internalType": "string",
          "name": "resumeURI",
          "type": "string"
        },
        {
          "internalType": "uint256",
          "name": "amount",
          "type": "uint256"
        }
      ],
      "name": "mintChip",
      "outputs": [
        {
          "internalType": "uint256",
          "name": "",
          "type": "uint256"
        }
      ],
      "stateMutability": "nonpayable",
      "type": "function"
    },
    {
      "inputs": [],
      "name": "owner",
      "outputs": [
        {
          "internalType": "address",
          "name": "",
          "type": "address"
        }
      ],
      "stateMutability": "view",
      "type": "function"
    },
    {
      "inputs": [],
      "name": "pause",
      "outputs": [],
      "stateMutability": "nonpayable",
      "type": "function"
    },
    {
      "inputs": [],
      "name": "paused",
      "outputs": [
        {
          "internalType": "bool",
          "name": "",
          "type": "bool"
        }
      ],
      "stateMutability": "view",
      "type": "function"
    },
    {
      "inputs": [],
      "name": "renounceOwnership",
      "outputs": [],
      "stateMutability": "nonpayable",
      "type": "function"
    },
    {
      "inputs": [
        {
          "internalType": "address",
          "name": "from",
          "type": "address"
        },
        {
          "internalType": "address",
          "name": "to",
          "type": "address"
        },
        {
          "internalType": "uint256[]",
          "name": "ids",
          "type": "uint256[]"
        },
        {
          "internalType": "uint256[]",
          "name": "values",
          "type": "uint256[]"
        },
        {
          "internalType": "bytes",
          "name": "data",
          "type": "bytes"
        }
      ],
      "name": "safeBatchTransferFrom",
      "outputs": [],
      "stateMutability": "nonpayable",
      "type": "function"
    },
    {
      "inputs": [
        {
          "internalType": "address",
          "name": "from",
          "type": "address"
        },
        {
          "internalType": "address",
          "name": "to",
          "type": "address"
        },
        {
          "internalType": "uint256",
          "name": "id",
          "type": "uint256"
        },
        {
          "internalType": "uint256",
          "name": "value",
          "type": "uint256"
        },
        {
          "internalType": "bytes",
          "name": "data",
          "type": "bytes"
        }
      ],
      "name": "safeTransferFrom",
      "outputs": [],
      "stateMutability": "nonpayable",
      "type": "function"
    },
    {
      "inputs": [
        {
          "internalType": "address",
          "name": "operator",
          "type": "address"
        },
        {
          "internalType": "bool",
          "name": "approved",
          "type": "bool"
        }
      ],
      "name": "setApprovalForAll",
      "outputs": [],
      "stateMutability": "nonpayable",
      "type": "function"
    },
    {
      "inputs": [
        {
          "internalType": "string",
          "name": "newURI",
          "type": "string"
        }
      ],
      "name": "setURI",
      "outputs": [],
      "stateMutability": "nonpayable",
      "type": "function"
    },
    {
      "inputs": [
        {
          "internalType": "bytes4",
          "name": "interfaceId",
          "type": "bytes4"
        }
      ],
      "name": "supportsInterface",
      "outputs": [
        {
          "internalType": "bool",
          "name": "",
          "type": "bool"
        }
      ],
      "stateMutability": "view",
      "type": "function"
    },
    {
      "inputs": [
        {
          "internalType": "address",
          "name": "newOwner",
          "type": "address"
        }
      ],
      "name": "transferOwnership",
      "outputs": [],
      "stateMutability": "nonpayable",
      "type": "function"
    },
    {
      "inputs": [],
      "name": "unpause",
      "outputs": [],
      "stateMutability": "nonpayable",
      "type": "function"
    },
    {
      "inputs": [
        {
          "internalType": "uint256",
          "name": "chipId",
          "type": "uint256"
        }
      ],
      "name": "uri",
      "outputs": [
        {
          "internalType": "string",
          "name": "",
          "type": "string"
        }
      ],
      "stateMutability": "view",
      "type": "function"
    }
  ],
  "bytecode": "0x60806040523480156200001157600080fd5b5060405162002811380380620028118339810160408190526200003491620000fe565b3381620000418162000084565b506001600160a01b0381166200007157604051631e4fbdf760e01b81526000600482015260240160405180910390fd5b6200007c8162000096565b505062000330565b600262000092828262000264565b5050565b600380546001600160a01b038381166001600160a01b0319831681179093556040519116919082907f8be0079c531659141344cd1fd0a4f28419497f9722a3daafe3b4186f6b6457e090600090a35050565b634e487b7160e01b600052604160045260246000fd5b600060208083850312156200011257600080fd5b82516001600160401b03808211156200012a57600080fd5b818501915085601f8301126200013f57600080fd5b815181811115620001545762000154620000e8565b604051601f8201601f19908116603f011681019083821181831017156200017f576200017f620000e8565b8160405282815288868487010111156200019857600080fd5b600093505b82841015620001bc57848401860151818501870152928501926200019d565b600086848301015280965050505050505092915050565b600181811c90821680620001e857607f821691505b6020821081036200020957634e487b7160e01b600052602260045260246000fd5b50919050565b601f8211156200025f576000816000526020600020601f850160051c810160208610156200023a5750805b601f850160051c820191505b818110156200025b5782815560010162000246565b5050505b505050565b81516001600160401b03811115620002805762000280620000e8565b6200029881620002918454620001d3565b846200020f565b602080601f831160018114620002d05760008415620002b75750858301515b600019600386901b1c1916600185901b1785556200025b565b600085815260208120601f198616915b828110156200030157888601518255948401946001909101908401620002e0565b5085821015620003205787850151600019600388901b60f8161c191681555b5050505050600190811b01905550565b6124d180620003406000396000f3fe608060405234801561001057600080fd5b506004361061014c5760003560e01c80635c975abb116100c35780639a28e4ec1161007c5780639a28e4ec146102cc578063a22cb465146102ec578063e985e9c5146102ff578063f242432a14610312578063f2fde38b14610325578063f42a950e1461033857600080fd5b80635c975abb14610269578063650a84b11461027b578063715018a61461028e578063762eb487146102965780638456cb59146102a95780638da5cb5b146102b157600080fd5b80632eb2c2d6116101155780632eb2c2d6146101e25780633ec86604146101f55780633f4ba83a1461020857806340d96050146102105780634acf8961146102365780634e1273f41461024957600080fd5b8062fdd58e1461015157806301ffc9a71461017757806302fe53051461019a5780630e89341c146101af5780632072a289146101cf575b600080fd5b61016461015f366004611b44565b61034b565b6040519081526020015b60405180910390f35b61018a610185366004611b84565b610373565b604051901515815260200161016e565b6101ad6101a8366004611bf0565b6103c3565b005b6101c26101bd366004611c31565b61040e565b60405161016e9190611c90565b6101646101dd366004611ca3565b6104e8565b6101ad6101f0366004611e63565b6106b6565b61018a610203366004611f0c565b610722565b6101ad610928565b61022361021e366004611c31565b61093a565b60405161016e9796959493929190611f38565b61018a610244366004611c31565b610a0f565b61025c610257366004611f87565b610b9d565b60405161016e9190612082565b600354600160a01b900460ff1661018a565b61025c610289366004612095565b610c69565b6101ad610cd4565b6101646102a4366004611b44565b610ce6565b6101ad610d17565b6003546040516001600160a01b03909116815260200161016e565b6102df6102da366004611c31565b610d27565b60405161016e91906120b0565b6101ad6102fa36600461212d565b610eaa565b61018a61030d366004612164565b610eb5565b6101ad61032036600461218e565b610ee3565b6101ad610333366004612095565b610f42565b61025c610346366004612095565b610f80565b6000818152602081815260408083206001600160a01b03861684529091529020545b92915050565b60006001600160e01b03198216636cdb3d1360e11b14806103a457506001600160e01b031982166303a24d0760e21b145b8061036d57506301ffc9a760e01b6001600160e01b031983161461036d565b6103cb6111dd565b61040a82828080601f01602080910402602001604051908101604052809392919081815260200183838082843760009201919091525061120a92505050565b5050565b6000818152600560205260409020546060906001600160a01b03166104465760405163010616ad60e41b815260040160405180910390fd5b6000828152600560208190526040909120018054610463906121f2565b80601f016020809104026020016040519081016040528092919081815260200182805461048f906121f2565b80156104dc5780601f106104b1576101008083540402835291602001916104dc565b820191906000526020600020905b8154815290600101906020018083116104bf57829003601f168201915b50505050509050919050565b60006104f2611216565b6001600160a01b0388166105195760405163d92e233d60e01b815260040160405180910390fd5b60048054908190600061052b83612242565b91905055506040518060e00160405280336001600160a01b031681526020018981526020018881526020016000815260200187815260200186868080601f016020809104026020016040519081016040528093929190818152602001838380828437600092018290525093855250505060209182018190528381526005808352604091829020845181546001600160a01b0319166001600160a01b03909116178155928401516001840155908301516002830155606083015160038301556080830151600483015560a08301519082019061060690826122a8565b5060c091909101516006918201805460ff19169115159190911790556001600160a01b038a16600090815260209182526040808220805460018101825590835283832001849055805192830190528152610665908a9083908690611241565b6040805189815260208101899052908101879052819033907f6afe196a01c8955cfd7ae8f7a87ee1857a1a1a695fcf735def323a0d44ea45259060600160405180910390a398975050505050505050565b336001600160a01b03861681148015906106d757506106d58682610eb5565b155b1561070d5760405163711bec9160e11b81526001600160a01b038083166004830152871660248201526044015b60405180910390fd5b61071a868686868661129e565b505050505050565b6000828152600560205260408120546001600160a01b03166107575760405163010616ad60e41b815260040160405180910390fd5b6000838152600560205260409020600681015460ff161561078b5760405163e1d7040760e01b815260040160405180910390fd5b600081600101541180156107a25750806001015442115b156107c057604051630fe26eff60e21b815260040160405180910390fd5b600081600201541180156107dc57508060020154816003015410155b156107fa576040516330c9dfbb60e11b815260040160405180910390fd5b610804338561034b565b15801561081b575080546001600160a01b03163314155b156108395760405163ea8e4eb560e01b815260040160405180910390fd5b61084533856001611305565b60038101805490600061085783612242565b9190505550610866338561034b565b158061088957506000816002015411801561088957508060020154816003015410155b1561089e5760068101805460ff191660011790555b6040516001600160a01b03841690339086907f7edd77fa3eabeb0d07e157d1df9c17eaae4c435dfef42eaf9a1c15abe489288590600090a4826001600160a01b0316847f3abe766396d1d7afc5aea7d7abe2c621a8adb6f725e50bba8c63df890070e6bc836003015460405161091691815260200190565b60405180910390a35060019392505050565b6109306111dd565b61093861136d565b565b60056020819052600091825260409091208054600182015460028301546003840154600485015495850180546001600160a01b03909516969395929491939291610983906121f2565b80601f01602080910402602001604051908101604052809291908181526020018280546109af906121f2565b80156109fc5780601f106109d1576101008083540402835291602001916109fc565b820191906000526020600020905b8154815290600101906020018083116109df57829003601f168201915b5050506006909301549192505060ff1687565b6000818152600560205260408120546001600160a01b0316610a3357506000919050565b6000828152600560208181526040808420815160e08101835281546001600160a01b031681526001820154938101939093526002810154918301919091526003810154606083015260048101546080830152918201805491929160a084019190610a9c906121f2565b80601f0160208091040260200160405190810160405280929190818152602001828054610ac8906121f2565b8015610b155780601f10610aea57610100808354040283529160200191610b15565b820191906000526020600020905b815481529060010190602001808311610af857829003601f168201915b50505091835250506006919091015460ff16151560209091015260c081015190915015610b455750600092915050565b60008160200151118015610b5c5750806020015142115b15610b6a5750600092915050565b60008160400151118015610b8657508060400151816060015110155b15610b945750600092915050565b50600192915050565b60608151835114610bce5781518351604051635b05999160e01b815260048101929092526024820152604401610704565b600083516001600160401b03811115610be957610be9611d1c565b604051908082528060200260200182016040528015610c12578160200160208202803683370190505b50905060005b8451811015610c6157602080820286010151610c3c9060208084028701015161034b565b828281518110610c4e57610c4e612367565b6020908102919091010152600101610c18565b509392505050565b6001600160a01b0381166000908152600660209081526040918290208054835181840281018401909452808452606093928301828280156104dc57602002820191906000526020600020905b815481526020019060010190808311610cb55750505050509050919050565b610cdc6111dd565b61093860006113c2565b60066020528160005260406000208181548110610d0257600080fd5b90600052602060002001600091509150505481565b610d1f6111dd565b610938611414565b610d726040518060e0016040528060006001600160a01b0316815260200160008152602001600081526020016000815260200160008152602001606081526020016000151581525090565b6000828152600560205260409020546001600160a01b0316610da75760405163010616ad60e41b815260040160405180910390fd5b600082815260056020818152604092839020835160e08101855281546001600160a01b031681526001820154928101929092526002810154938201939093526003830154606082015260048301546080820152908201805491929160a084019190610e11906121f2565b80601f0160208091040260200160405190810160405280929190818152602001828054610e3d906121f2565b8015610e8a5780601f10610e5f57610100808354040283529160200191610e8a565b820191906000526020600020905b815481529060010190602001808311610e6d57829003601f168201915b50505091835250506006919091015460ff16151560209091015292915050565b61040a338383611457565b6001600160a01b03918216600090815260016020908152604080832093909416825291909152205460ff1690565b336001600160a01b0386168114801590610f045750610f028682610eb5565b155b15610f355760405163711bec9160e11b81526001600160a01b03808316600483015287166024820152604401610704565b61071a86868686866114ed565b610f4a6111dd565b6001600160a01b038116610f7457604051631e4fbdf760e01b815260006004820152602401610704565b610f7d816113c2565b50565b6001600160a01b0381166000908152600660209081526040808320805482518185028101850190935280835260609493830182828015610fdf57602002820191906000526020600020905b815481526020019060010190808311610fcb575b50505050509050600081516001600160401b0381111561100157611001611d1c565b60405190808252806020026020018201604052801561102a578160200160208202803683370190505b5090506000805b835181101561114257306001600160a01b0316634acf896185838151811061105b5761105b612367565b60200260200101516040518263ffffffff1660e01b815260040161108191815260200190565b602060405180830381865afa15801561109e573d6000803e3d6000fd5b505050506040513d601f19601f820116820180604052508101906110c2919061237d565b80156110f0575060006110ee878684815181106110e1576110e1612367565b602002602001015161034b565b115b1561113a5783818151811061110757611107612367565b602002602001015183838151811061112157611121612367565b60209081029190910101528161113681612242565b9250505b600101611031565b506000816001600160401b0381111561115d5761115d611d1c565b604051908082528060200260200182016040528015611186578160200160208202803683370190505b50905060005b828110156111d3578381815181106111a6576111a6612367565b60200260200101518282815181106111c0576111c0612367565b602090810291909101015260010161118c565b5095945050505050565b6003546001600160a01b031633146109385760405163118cdaa760e01b8152336004820152602401610704565b600261040a82826122a8565b600354600160a01b900460ff16156109385760405163d93c066560e01b815260040160405180910390fd5b6001600160a01b03841661126b57604051632bfa23e760e11b815260006004820152602401610704565b6040805160018082526020820186905281830190815260608201859052608082019092529061071a60008784848761157b565b6001600160a01b0384166112c857604051632bfa23e760e11b815260006004820152602401610704565b6001600160a01b0385166112f157604051626a0d4560e21b815260006004820152602401610704565b6112fe858585858561157b565b5050505050565b6001600160a01b03831661132e57604051626a0d4560e21b815260006004820152602401610704565b604080516001808252602082018590528183019081526060820184905260a082019092526000608082018181529192916112fe9187918590859061157b565b6113756115ce565b6003805460ff60a01b191690557f5db9ee0a495bf2e6ff9c91a7834c1ba4fdd244a5e8aa4e537bd38aeae4b073aa335b6040516001600160a01b03909116815260200160405180910390a1565b600380546001600160a01b038381166001600160a01b0319831681179093556040519116919082907f8be0079c531659141344cd1fd0a4f28419497f9722a3daafe3b4186f6b6457e090600090a35050565b61141c611216565b6003805460ff60a01b1916600160a01b1790557f62e78cea01bee320cd4e420270b5ea74000d11b0c9f74754ebdbfc544b05a2586113a53390565b6001600160a01b0382166114805760405162ced3e160e81b815260006004820152602401610704565b6001600160a01b03838116600081815260016020908152604080832094871680845294825291829020805460ff191686151590811790915591519182527f17307eab39ab6107e8899845ad3d59bd9653f200f220920489ca2b5937696c31910160405180910390a3505050565b6001600160a01b03841661151757604051632bfa23e760e11b815260006004820152602401610704565b6001600160a01b03851661154057604051626a0d4560e21b815260006004820152602401610704565b60408051600180825260208201869052818301908152606082018590526080820190925290611572878784848761157b565b50505050505050565b611587858585856115f8565b6001600160a01b038416156112fe57825133906001036115c057602084810151908401516115b9838989858589611707565b505061071a565b61071a81878787878761182b565b600354600160a01b900460ff1661093857604051638dfc202b60e01b815260040160405180910390fd5b61160484848484611914565b6001600160a01b0384161580159061162457506001600160a01b03831615155b156117015760005b82518110156112fe57600083828151811061164957611649612367565b602002602001015190506000805b6001600160a01b0387166000908152600660205260409020548110156116c5576001600160a01b03871660009081526006602052604090208054849190839081106116a4576116a4612367565b9060005260206000200154036116bd57600191506116c5565b600101611657565b50806116f7576001600160a01b0386166000908152600660209081526040822080546001810182559083529120018290555b505060010161162c565b50505050565b6001600160a01b0384163b1561071a5760405163f23a6e6160e01b81526001600160a01b0385169063f23a6e619061174b908990899088908890889060040161239a565b6020604051808303816000875af1925050508015611786575060408051601f3d908101601f19168201909252611783918101906123df565b60015b6117ef573d8080156117b4576040519150601f19603f3d011682016040523d82523d6000602084013e6117b9565b606091505b5080516000036117e757604051632bfa23e760e11b81526001600160a01b0386166004820152602401610704565b805160208201fd5b6001600160e01b0319811663f23a6e6160e01b1461157257604051632bfa23e760e11b81526001600160a01b0386166004820152602401610704565b6001600160a01b0384163b1561071a5760405163bc197c8160e01b81526001600160a01b0385169063bc197c819061186f90899089908890889088906004016123fc565b6020604051808303816000875af19250505080156118aa575060408051601f3d908101601f191682019092526118a7918101906123df565b60015b6118d8573d8080156117b4576040519150601f19603f3d011682016040523d82523d6000602084013e6117b9565b6001600160e01b0319811663bc197c8160e01b1461157257604051632bfa23e760e11b81526001600160a01b0386166004820152602401610704565b80518251146119435781518151604051635b05999160e01b815260048101929092526024820152604401610704565b3360005b8351811015611a49576020818102858101820151908501909101516001600160a01b038816156119fa576000828152602081815260408083206001600160a01b038c168452909152902054818110156119d3576040516303dee4c560e01b81526001600160a01b038a166004820152602481018290526044810183905260648101849052608401610704565b6000838152602081815260408083206001600160a01b038d16845290915290209082900390555b6001600160a01b03871615611a3f576000828152602081815260408083206001600160a01b038b16845290915281208054839290611a3990849061245a565b90915550505b5050600101611947565b508251600103611aca5760208301516000906020840151909150856001600160a01b0316876001600160a01b0316846001600160a01b03167fc3d58168c5ae7397731d063d5bbf3d657854427343f4c083240f7aacaa2d0f628585604051611abb929190918252602082015260400190565b60405180910390a450506112fe565b836001600160a01b0316856001600160a01b0316826001600160a01b03167f4a39dc06d4c0dbc64b70af90fd698a233a518aa5d07e595d983b8c0526c8f7fb8686604051611b1992919061246d565b60405180910390a45050505050565b80356001600160a01b0381168114611b3f57600080fd5b919050565b60008060408385031215611b5757600080fd5b611b6083611b28565b946020939093013593505050565b6001600160e01b031981168114610f7d57600080fd5b600060208284031215611b9657600080fd5b8135611ba181611b6e565b9392505050565b60008083601f840112611bba57600080fd5b5081356001600160401b03811115611bd157600080fd5b602083019150836020828501011115611be957600080fd5b9250929050565b60008060208385031215611c0357600080fd5b82356001600160401b03811115611c1957600080fd5b611c2585828601611ba8565b90969095509350505050565b600060208284031215611c4357600080fd5b5035919050565b6000815180845260005b81811015611c7057602081850181015186830182015201611c54565b506000602082860101526020601f19601f83011685010191505092915050565b602081526000611ba16020830184611c4a565b600080600080600080600060c0888a031215611cbe57600080fd5b611cc788611b28565b965060208801359550604088013594506060880135935060808801356001600160401b03811115611cf757600080fd5b611d038a828b01611ba8565b989b979a5095989497959660a090950135949350505050565b634e487b7160e01b600052604160045260246000fd5b604051601f8201601f191681016001600160401b0381118282101715611d5a57611d5a611d1c565b604052919050565b60006001600160401b03821115611d7b57611d7b611d1c565b5060051b60200190565b600082601f830112611d9657600080fd5b81356020611dab611da683611d62565b611d32565b8083825260208201915060208460051b870101935086841115611dcd57600080fd5b602086015b84811015611de95780358352918301918301611dd2565b509695505050505050565b600082601f830112611e0557600080fd5b81356001600160401b03811115611e1e57611e1e611d1c565b611e31601f8201601f1916602001611d32565b818152846020838601011115611e4657600080fd5b816020850160208301376000918101602001919091529392505050565b600080600080600060a08688031215611e7b57600080fd5b611e8486611b28565b9450611e9260208701611b28565b935060408601356001600160401b0380821115611eae57600080fd5b611eba89838a01611d85565b94506060880135915080821115611ed057600080fd5b611edc89838a01611d85565b93506080880135915080821115611ef257600080fd5b50611eff88828901611df4565b9150509295509295909350565b60008060408385031215611f1f57600080fd5b82359150611f2f60208401611b28565b90509250929050565b60018060a01b038816815286602082015285604082015284606082015283608082015260e060a08201526000611f7160e0830185611c4a565b905082151560c083015298975050505050505050565b60008060408385031215611f9a57600080fd5b82356001600160401b0380821115611fb157600080fd5b818501915085601f830112611fc557600080fd5b81356020611fd5611da683611d62565b82815260059290921b84018101918181019089841115611ff457600080fd5b948201945b838610156120195761200a86611b28565b82529482019490820190611ff9565b9650508601359250508082111561202f57600080fd5b5061203c85828601611d85565b9150509250929050565b60008151808452602080850194506020840160005b838110156120775781518752958201959082019060010161205b565b509495945050505050565b602081526000611ba16020830184612046565b6000602082840312156120a757600080fd5b611ba182611b28565b6020815260018060a01b038251166020820152602082015160408201526040820151606082015260608201516080820152608082015160a0820152600060a083015160e060c0840152612107610100840182611c4a565b905060c0840151151560e08401528091505092915050565b8015158114610f7d57600080fd5b6000806040838503121561214057600080fd5b61214983611b28565b915060208301356121598161211f565b809150509250929050565b6000806040838503121561217757600080fd5b61218083611b28565b9150611f2f60208401611b28565b600080600080600060a086880312156121a657600080fd5b6121af86611b28565b94506121bd60208701611b28565b9350604086013592506060860135915060808601356001600160401b038111156121e657600080fd5b611eff88828901611df4565b600181811c9082168061220657607f821691505b60208210810361222657634e487b7160e01b600052602260045260246000fd5b50919050565b634e487b7160e01b600052601160045260246000fd5b6000600182016122545761225461222c565b5060010190565b601f8211156122a3576000816000526020600020601f850160051c810160208610156122845750805b601f850160051c820191505b8181101561071a57828155600101612290565b505050565b81516001600160401b038111156122c1576122c1611d1c565b6122d5816122cf84546121f2565b8461225b565b602080601f83116001811461230a57600084156122f25750858301515b600019600386901b1c1916600185901b17855561071a565b600085815260208120601f198616915b828110156123395788860151825594840194600190910190840161231a565b50858210156123575787850151600019600388901b60f8161c191681555b5050505050600190811b01905550565b634e487b7160e01b600052603260045260246000fd5b60006020828403121561238f57600080fd5b8151611ba18161211f565b6001600160a01b03868116825285166020820152604081018490526060810183905260a0608082018190526000906123d490830184611c4a565b979650505050505050565b6000602082840312156123f157600080fd5b8151611ba181611b6e565b6001600160a01b0386811682528516602082015260a06040820181905260009061242890830186612046565b828103606084015261243a8186612046565b9050828103608084015261244e8185611c4a565b98975050505050505050565b8082018082111561036d5761036d61222c565b6040815260006124806040830185612046565b82810360208401526124928185612046565b9594505050505056fea2646970667358221220a5b62770321a41f046266b7f7e29cf920327821f3d034ad68a18d864f3f3114864736f6c63430008170033",
  "linkReferences": {},
  "deployedLinkReferences": {}
}