{
  "_format": "hh-sol-artifact-1",
  "contractName": "RSTRegistry",
  "sourceName": "contracts/RSTRegistry.sol",
  "abi": [
    {
      "inputs": [
        {
          "internalType": "address",
          "name": "admin",
          "type": "address"
        }
      ],
      "stateMutability": "nonpayable",
      "type": "constructor"
    },
    {
      "inputs": [],
      "name": "AccessControlBadConfirmation",
      "type": "error"
    },
    {
      "inputs": [
        {
          "internalType": "address",
          "name": "account",
          "type": "address"
        },
        {
          "internalType": "bytes32",
          "name": "neededRole",
          "type": "bytes32"
        }
      ],
      "name": "AccessControlUnauthorizedAccount",
      "type": "error"
    },
    {
      "inputs": [],
      "name": "ContractAlreadyRegistered",
      "type": "error"
    },
    {
      "inputs": [],
      "name": "ContractNotRegistered",
      "type": "error"
    },
    {
      "inputs": [],
      "name": "DomainAlreadyApproved",
      "type": "error"
    },
    {
      "inputs": [],
      "name": "DomainNotApproved",
      "type": "error"
    },
    {
      "inputs": [],
      "name": "EmptyString",
      "type": "error"
    },
    {
      "inputs": [],
      "name": "EnforcedPause",
      "type": "error"
    },
    {
      "inputs": [],
      "name": "ExpectedPause",
      "type": "error"
    },
    {
      "inputs": [],
      "name": "IssuerAlreadyRegistered",
      "type": "error"
    },
    {
      "inputs": [],
      "name": "IssuerNotRegistered",
      "type": "error"
    },
    {
      "inputs": [],
      "name": "ZeroAddress",
      "type": "error"
    },
    {
      "anonymous": false,
      "inputs": [
        {
          "indexed": true,
          "internalType": "address",
          "name": "contractAddress",
          "type": "address"
        }
      ],
      "name": "ContractDeregistered",
      "type": "event"
    },
    {
      "anonymous": false,
      "inputs": [
        {
          "indexed": true,
          "internalType": "address",
          "name": "contractAddress",
          "type": "address"
        },
        {
          "indexed": false,
          "internalType": "string",
          "name": "name",
          "type": "string"
        },
        {
          "indexed": false,
          "internalType": "string",
          "name": "version",
          "type": "string"
        }
      ],
      "name": "ContractRegistered",
      "type": "event"
    },
    {
      "anonymous": false,
      "inputs": [
        {
          "indexed": false,
          "internalType": "string",
          "name": "domain",
          "type": "string"
        }
      ],
      "name": "DomainApproved",
      "type": "event"
    },
    {
      "anonymous": false,
      "inputs": [
        {
          "indexed": false,
          "internalType": "string",
          "name": "domain",
          "type": "string"
        }
      ],
      "name": "DomainRevoked",
      "type": "event"
    },
    {
      "anonymous": false,
      "inputs": [
        {
          "indexed": true,
          "internalType": "address",
          "name": "issuer",
          "type": "address"
        },
        {
          "indexed": false,
          "internalType": "string",
          "name": "name",
          "type": "string"
        },
        {
          "indexed": false,
          "internalType": "string",
          "name": "did",
          "type": "string"
        }
      ],
      "name": "IssuerRegistered",
      "type": "event"
    },
    {
      "anonymous": false,
      "inputs": [
        {
          "indexed": true,
          "internalType": "address",
          "name": "issuer",
          "type": "address"
        },
        {
          "indexed": false,
          "internalType": "string",
          "name": "name",
          "type": "string"
        },
        {
          "indexed": false,
          "internalType": "string",
          "name": "did",
          "type": "string"
        },
        {
          "indexed": false,
          "internalType": "bool",
          "name": "active",
          "type": "bool"
        }
      ],
      "name": "IssuerUpdated",
      "type": "event"
    },
    {
      "anonymous": false,
      "inputs": [
        {
          "indexed": false,
          "internalType": "address",
          "name": "account",
          "type": "address"
        }
      ],
      "name": "Paused",
      "type": "event"
    },
    {
      "anonymous": false,
      "inputs": [
        {
          "indexed": true,
          "internalType": "bytes32",
          "name": "role",
          "type": "bytes32"
        },
        {
          "indexed": true,
          "internalType": "bytes32",
          "name": "previousAdminRole",
          "type": "bytes32"
        },
        {
          "indexed": true,
          "internalType": "bytes32",
          "name": "newAdminRole",
          "type": "bytes32"
        }
      ],
      "name": "RoleAdminChanged",
      "type": "event"
    },
    {
      "anonymous": false,
      "inputs": [
        {
          "indexed": true,
          "internalType": "bytes32",
          "name": "role",
          "type": "bytes32"
        },
        {
          "indexed": true,
          "internalType": "address",
          "name": "account",
          "type": "address"
        },
        {
          "indexed": true,
          "internalType": "address",
          "name": "sender",
          "type": "address"
        }
      ],
      "name": "RoleGranted",
      "type": "event"
    },
    {
      "anonymous": false,
      "inputs": [
        {
          "indexed": true,
          "internalType": "bytes32",
          "name": "role",
          "type": "bytes32"
        },
        {
          "indexed": true,
          "internalType": "address",
          "name": "account",
          "type": "address"
        },
        {
          "indexed": true,
          "internalType": "address",
          "name": "sender",
          "type": "address"
        }
      ],
      "name": "RoleRevoked",
      "type": "event"
    },
    {
      "anonymous": false,
      "inputs": [
        {
          "indexed": false,
          "internalType": "address",
          "name": "account",
          "type": "address"
        }
      ],
      "name": "Unpaused",
      "type": "event"
    },
    {
      "inputs": [],
      "name": "ADMIN_ROLE",
      "outputs": [
        {
          "internalType": "bytes32",
          "name": "",
          "type": "bytes32"
        }
      ],
      "stateMutability": "view",
      "type": "function"
    },
    {
      "inputs": [],
      "name": "DEFAULT_ADMIN_ROLE",
      "outputs": [
        {
          "internalType": "bytes32",
          "name": "",
          "type": "bytes32"
        }
      ],
      "stateMutability": "view",
      "type": "function"
    },
    {
      "inputs": [],
      "name": "REGISTRY_MANAGER_ROLE",
      "outputs": [
        {
          "internalType": "bytes32",
          "name": "",
          "type": "bytes32"
        }
      ],
      "stateMutability": "view",
      "type": "function"
    },
    {
      "inputs": [
        {
          "internalType": "string",
          "name": "domain",
          "type": "string"
        }
      ],
      "name": "approveDomain",
      "outputs": [],
      "stateMutability": "nonpayable",
      "type": "function"
    },
    {
      "inputs": [
        {
          "internalType": "string",
          "name": "",
          "type": "string"
        }
      ],
      "name": "approvedDomains",
      "outputs": [
        {
          "internalType": "bool",
          "name": "",
          "type": "bool"
        }
      ],
      "stateMutability": "view",
      "type": "function"
    },
    {
      "inputs": [
        {
          "internalType": "address",
          "name": "",
          "type": "address"
        }
      ],
      "name": "contractInfo",
      "outputs": [
        {
          "internalType": "address",
          "name": "contractAddress",
          "type": "address"
        },
        {
          "internalType": "string",
          "name": "name",
          "type": "string"
        },
        {
          "internalType": "string",
          "name": "version",
          "type": "string"
        },
        {
          "internalType": "bool",
          "name": "active",
          "type": "bool"
        },
        {
          "internalType": "uint256",
          "name": "registeredAt",
          "type": "uint256"
        }
      ],
      "stateMutability": "view",
      "type": "function"
    },
    {
      "inputs": [
        {
          "internalType": "address",
          "name": "contractAddress",
          "type": "address"
        }
      ],
      "name": "deregisterContract",
      "outputs": [],
      "stateMutability": "nonpayable",
      "type": "function"
    },
    {
      "inputs": [
        {
          "internalType": "uint256",
          "name": "",
          "type": "uint256"
        }
      ],
      "name": "domainList",
      "outputs": [
        {
          "internalType": "string",
          "name": "",
          "type": "string"
        }
      ],
      "stateMutability": "view",
      "type": "function"
    },
    {
      "inputs": [
        {
          "internalType": "address",
          "name": "holder",
          "type": "address"
        },
        {
          "internalType": "string",
          "name": "domain",
          "type": "string"
        }
      ],
      "name": "getAllRiSTsForHolder",
      "outputs": [
        {
          "internalType": "uint256[]",
          "name": "tokenIds",
          "type": "uint256[]"
        },
        {
          "internalType": "address[]",
          "name": "contracts",
          "type": "address[]"
        }
      ],
      "stateMutability": "view",
      "type": "function"
    },
    {
      "inputs": [],
      "name": "getApprovedDomains",
      "outputs": [
        {
          "internalType": "string[]",
          "name": "",
          "type": "string[]"
        }
      ],
      "stateMutability": "view",
      "type": "function"
    },
    {
      "inputs": [],
      "name": "getRegisteredContracts",
      "outputs": [
        {
          "internalType": "address[]",
          "name": "",
          "type": "address[]"
        }
      ],
      "stateMutability": "view",
      "type": "function"
    },
    {
      "inputs": [],
      "name": "getRegisteredIssuers",
      "outputs": [
        {
          "internalType": "address[]",
          "name": "",
          "type": "address[]"
        }
      ],
      "stateMutability": "view",
      "type": "function"
    },
    {
      "inputs": [
        {
          "internalType": "bytes32",
          "name": "role",
          "type": "bytes32"
        }
      ],
      "name": "getRoleAdmin",
      "outputs": [
        {
          "internalType": "bytes32",
          "name": "",
          "type": "bytes32"
        }
      ],
      "stateMutability": "view",
      "type": "function"
    },
    {
      "inputs": [
        {
          "internalType": "address",
          "name": "holder",
          "type": "address"
        },
        {
          "internalType": "string",
          "name": "domain",
          "type": "string"
        }
      ],
      "name": "getTotalReputationScore",
      "outputs": [
        {
          "internalType": "uint256",
          "name": "",
          "type": "uint256"
        }
      ],
      "stateMutability": "view",
      "type": "function"
    },
    {
      "inputs": [
        {
          "internalType": "bytes32",
          "name": "role",
          "type": "bytes32"
        },
        {
          "internalType": "address",
          "name": "account",
          "type": "address"
        }
      ],
      "name": "grantRole",
      "outputs": [],
      "stateMutability": "nonpayable",
      "type": "function"
    },
    {
      "inputs": [
        {
          "internalType": "bytes32",
          "name": "role",
          "type": "bytes32"
        },
        {
          "internalType": "address",
          "name": "account",
          "type": "address"
        }
      ],
      "name": "hasRole",
      "outputs": [
        {
          "internalType": "bool",
          "name": "",
          "type": "bool"
        }
      ],
      "stateMutability": "view",
      "type": "function"
    },
    {
      "inputs": [
        {
          "internalType": "address",
          "name": "",
          "type": "address"
        }
      ],
      "name": "issuerInfo",
      "outputs": [
        {
          "internalType": "string",
          "name": "name",
          "type": "string"
        },
        {
          "internalType": "string",
          "name": "did",
          "type": "string"
        },
        {
          "internalType": "bool",
          "name": "active",
          "type": "bool"
        },
        {
          "internalType": "uint256",
          "name": "registeredAt",
          "type": "uint256"
        },
        {
          "internalType": "string",
          "name": "metadataURI",
          "type": "string"
        }
      ],
      "stateMutability": "view",
      "type": "function"
    },
    {
      "inputs": [],
      "name": "pause",
      "outputs": [],
      "stateMutability": "nonpayable",
      "type": "function"
    },
    {
      "inputs": [],
      "name": "paused",
      "outputs": [
        {
          "internalType": "bool",
          "name": "",
          "type": "bool"
        }
      ],
      "stateMutability": "view",
      "type": "function"
    },
    {
      "inputs": [
        {
          "internalType": "address",
          "name": "contractAddress",
          "type": "address"
        },
        {
          "internalType": "string",
          "name": "name",
          "type": "string"
        },
        {
          "internalType": "string",
          "name": "version",
          "type": "string"
        }
      ],
      "name": "registerContract",
      "outputs": [],
      "stateMutability": "nonpayable",
      "type": "function"
    },
    {
      "inputs": [
        {
          "internalType": "address",
          "name": "issuer",
          "type": "address"
        },
        {
          "internalType": "string",
          "name": "name",
          "type": "string"
        },
        {
          "internalType": "string",
          "name": "did",
          "type": "string"
        },
        {
          "internalType": "string",
          "name": "metadataURI",
          "type": "string"
        }
      ],
      "name": "registerIssuer",
      "outputs": [],
      "stateMutability": "nonpayable",
      "type": "function"
    },
    {
      "inputs": [
        {
          "internalType": "address",
          "name": "",
          "type": "address"
        }
      ],
      "name": "registeredContracts",
      "outputs": [
        {
          "internalType": "bool",
          "name": "",
          "type": "bool"
        }
      ],
      "stateMutability": "view",
      "type": "function"
    },
    {
      "inputs": [
        {
          "internalType": "uint256",
          "name": "",
          "type": "uint256"
        }
      ],
      "name": "registeredIssuers",
      "outputs": [
        {
          "internalType": "address",
          "name": "",
          "type": "address"
        }
      ],
      "stateMutability": "view",
      "type": "function"
    },
    {
      "inputs": [
        {
          "internalType": "bytes32",
          "name": "role",
          "type": "bytes32"
        },
        {
          "internalType": "address",
          "name": "callerConfirmation",
          "type": "address"
        }
      ],
      "name": "renounceRole",
      "outputs": [],
      "stateMutability": "nonpayable",
      "type": "function"
    },
    {
      "inputs": [
        {
          "internalType": "string",
          "name": "domain",
          "type": "string"
        }
      ],
      "name": "revokeDomain",
      "outputs": [],
      "stateMutability": "nonpayable",
      "type": "function"
    },
    {
      "inputs": [
        {
          "internalType": "bytes32",
          "name": "role",
          "type": "bytes32"
        },
        {
          "internalType": "address",
          "name": "account",
          "type": "address"
        }
      ],
      "name": "revokeRole",
      "outputs": [],
      "stateMutability": "nonpayable",
      "type": "function"
    },
    {
      "inputs": [
        {
          "internalType": "uint256",
          "name": "",
          "type": "uint256"
        }
      ],
      "name": "ristContracts",
      "outputs": [
        {
          "internalType": "address",
          "name": "",
          "type": "address"
        }
      ],
      "stateMutability": "view",
      "type": "function"
    },
    {
      "inputs": [
        {
          "internalType": "bytes4",
          "name": "interfaceId",
          "type": "bytes4"
        }
      ],
      "name": "supportsInterface",
      "outputs": [
        {
          "internalType": "bool",
          "name": "",
          "type": "bool"
        }
      ],
      "stateMutability": "view",
      "type": "function"
    },
    {
      "inputs": [],
      "name": "unpause",
      "outputs": [],
      "stateMutability": "nonpayable",
      "type": "function"
    },
    {
      "inputs": [
        {
          "internalType": "address",
          "name": "issuer",
          "type": "address"
        },
        {
          "internalType": "string",
          "name": "name",
          "type": "string"
        },
        {
          "internalType": "string",
          "name": "did",
          "type": "string"
        },
        {
          "internalType": "bool",
          "name": "active",
          "type": "bool"
        },
        {
          "internalType": "string",
          "name": "metadataURI",
          "type": "string"
        }
      ],
      "name": "updateIssuer",
      "outputs": [],
      "stateMutability": "nonpayable",
      "type": "function"
    }
  ],
  "bytecode": "0x60806040523480156200001157600080fd5b5060405162002b0f38038062002b0f833981016040819052620000349162000152565b62000041600082620000a3565b506200006e7fa49807205ce4d355092ef5a8a18f56e8913cf4a201fbe287825b095693c2177582620000a3565b506200009b7ff7a450ef335e1892cb42c8ca72e7242359d7711924b75db5717410da3f614aa382620000a3565b505062000184565b6000828152602081815260408083206001600160a01b038516845290915281205460ff1662000148576000838152602081815260408083206001600160a01b03861684529091529020805460ff19166001179055620000ff3390565b6001600160a01b0316826001600160a01b0316847f2f8788117e7eff1d82e926ec794901d17c78024a50270940304540a733656f0d60405160405180910390a45060016200014c565b5060005b92915050565b6000602082840312156200016557600080fd5b81516001600160a01b03811681146200017d57600080fd5b9392505050565b61297b80620001946000396000f3fe608060405234801561001057600080fd5b50600436106101da5760003560e01c806375b238fc11610104578063a217fddf116100a2578063d238554a11610071578063d238554a1461044a578063d547741f1461046a578063e11eb98d1461047d578063edd1d96a146104a157600080fd5b8063a217fddf146103f3578063a5b701ac146103fb578063bd8fde1c1461040e578063ccf4b9ab1461043557600080fd5b806390c2b17d116100de57806390c2b17d1461039157806391d14854146103b557806395877f32146103c8578063a06617cd146103d057600080fd5b806375b238fc146103615780637a20c55d146103765780638456cb591461038957600080fd5b806339066ca71161017c57806364b626d81161014b57806364b626d8146103055780636ba3f471146103185780636e1bf3d71461033957806374069b351461034e57600080fd5b806339066ca7146102b45780633f4ba83a146102df578063547045db146102e75780635c975abb146102fa57600080fd5b80632a27d4f5116101b85780632a27d4f51461024d5780632f2ff15d1461027b57806331bb017a1461028e57806336568abe146102a157600080fd5b806301ffc9a7146101df578063161397fb14610207578063248a9ca31461021c575b600080fd5b6101f26101ed366004611e6a565b6104b4565b60405190151581526020015b60405180910390f35b61021a610215366004611ee3565b6104eb565b005b61023f61022a366004611f24565b60009081526020819052604090206001015490565b6040519081526020016101fe565b6101f261025b366004611f83565b805160208183018101805160078252928201919093012091525460ff1681565b61021a610289366004612033565b610618565b61021a61029c36600461205f565b610643565b61021a6102af366004612033565b6108b7565b6102c76102c2366004611f24565b6108ef565b6040516001600160a01b0390911681526020016101fe565b61021a610919565b61021a6102f5366004611ee3565b61093c565b60015460ff166101f2565b61021a610313366004612109565b6109fa565b61032b610326366004612124565b610ac0565b6040516101fe9291906121bb565b610341610de8565b6040516101fe9190612213565b61021a61035c366004612226565b610f6b565b61023f60008051602061292683398151915281565b61023f610384366004612124565b6111d7565b61021a6112ee565b6103a461039f366004612109565b61130e565b6040516101fe9594939291906122ec565b6101f26103c3366004612033565b6114dc565b610341611505565b6101f26103de366004612109565b60026020526000908152604090205460ff1681565b61023f600081565b6102c7610409366004611f24565b61170d565b61023f7ff7a450ef335e1892cb42c8ca72e7242359d7711924b75db5717410da3f614aa381565b61043d61171d565b6040516101fe919061233f565b61045d610458366004611f24565b611904565b6040516101fe91906123a3565b61021a610478366004612033565b6119b0565b61049061048b366004612109565b6119d5565b6040516101fe9594939291906123b6565b61021a6104af366004612401565b611b22565b60006001600160e01b03198216637965db0b60e01b14806104e557506301ffc9a760e01b6001600160e01b03198316145b92915050565b60008051602061292683398151915261050381611c4c565b60008290036105255760405163ecd7b0d160e01b815260040160405180910390fd5b600783836040516105379291906124c4565b9081526040519081900360200190205460ff161561056857604051637a4fae1d60e01b815260040160405180910390fd5b60016007848460405161057c9291906124c4565b908152604051908190036020019020805491151560ff19909216919091179055600880546001810182556000919091527ff3f7a9fe364faab93b216da50a3214154f22a0a2b415b23a84c8169e8b636ee3016105d983858361255e565b507fab79933cb56dfffda6d94f83d2006c9e6d3b659db22d669195ab5c02d11c2a23838360405161060b929190612647565b60405180910390a1505050565b60008281526020819052604090206001015461063381611c4c565b61063d8383611c56565b50505050565b60008051602061292683398151915261065b81611c4c565b6001600160a01b0388166106825760405163d92e233d60e01b815260040160405180910390fd5b60008690036106a45760405163ecd7b0d160e01b815260040160405180910390fd5b6001600160a01b038816600090815260046020526040902060030154156106de57604051633c2dd12960e01b815260040160405180910390fd5b6040518060a0016040528088888080601f016020809104026020016040519081016040528093929190818152602001838380828437600092019190915250505090825250604080516020601f8901819004810282018101909252878152918101919088908890819084018382808284376000920191909152505050908252506001602080830191909152426040808401919091528051601f870183900483028101830190915285815260609092019190869086908190840183828082843760009201829052509390945250506001600160a01b038b168152600460205260409020825190915081906107d09082612663565b50602082015160018201906107e59082612663565b50604082015160028201805460ff1916911515919091179055606082015160038201556080820151600482019061081c9082612663565b5050600680546001810182556000919091527ff652222313e28459528d920b65115c16c04f3efc82aaedc97be59f3f377c0d3f0180546001600160a01b0319166001600160a01b038b169081179091556040519091507f2b062b4e0857383c98aacd16bcd2714030d81ad54eb91dd18856344424386651906108a5908a908a908a908a90612722565b60405180910390a25050505050505050565b6001600160a01b03811633146108e05760405163334bd91960e11b815260040160405180910390fd5b6108ea8282611ce8565b505050565b600581815481106108ff57600080fd5b6000918252602090912001546001600160a01b0316905081565b60008051602061292683398151915261093181611c4c565b610939611d53565b50565b60008051602061292683398151915261095481611c4c565b600783836040516109669291906124c4565b9081526040519081900360200190205460ff166109965760405163489b950560e01b815260040160405180910390fd5b6000600784846040516109aa9291906124c4565b908152604051908190036020018120805492151560ff19909316929092179091557f3107f9dbb1e381f2d3aaaf046373223d56d3dafe7540adadc273d9558ed88c9f9061060b9085908590612647565b7ff7a450ef335e1892cb42c8ca72e7242359d7711924b75db5717410da3f614aa3610a2481611c4c565b6001600160a01b03821660009081526002602052604090205460ff16610a5d57604051639ada36a160e01b815260040160405180910390fd5b6001600160a01b0382166000818152600260209081526040808320805460ff199081169091556003928390528184209092018054909216909155517fc32d83d423bd05b8916851ed8856f32f6a435e4cd9224f3972a943075dd7727e9190a25050565b6060806000805b600554811015610bd057600060058281548110610ae657610ae6612754565b60009182526020808320909101546001600160a01b0316808352600290915260409091205490915060ff168015610b3957506001600160a01b0381166000908152600360208190526040909120015460ff165b15610bc657604051630140194b60e41b81526001600160a01b0382169063140194b090610b6e908b908b908b9060040161276a565b600060405180830381865afa925050508015610bac57506040513d6000823e601f3d908101601f19168201604052610ba99190810190612798565b60015b610bb65750610bc8565b8051610bc29085612847565b9350505b505b600101610ac7565b50806001600160401b03811115610be957610be9611f3d565b604051908082528060200260200182016040528015610c12578160200160208202803683370190505b509250806001600160401b03811115610c2d57610c2d611f3d565b604051908082528060200260200182016040528015610c56578160200160208202803683370190505b5091506000805b600554811015610ddd57600060058281548110610c7c57610c7c612754565b60009182526020808320909101546001600160a01b0316808352600290915260409091205490915060ff168015610ccf57506001600160a01b0381166000908152600360208190526040909120015460ff165b15610dd357604051630140194b60e41b81526001600160a01b0382169063140194b090610d04908c908c908c9060040161276a565b600060405180830381865afa925050508015610d4257506040513d6000823e601f3d908101601f19168201604052610d3f9190810190612798565b60015b610d4c5750610dd5565b60005b8151811015610dd057818181518110610d6a57610d6a612754565b6020026020010151888681518110610d8457610d84612754565b60200260200101818152505082878681518110610da357610da3612754565b6001600160a01b039092166020928302919091019091015284610dc58161285a565b955050600101610d4f565b50505b505b600101610c5d565b505050935093915050565b60606000805b600654811015610e55576004600060068381548110610e0f57610e0f612754565b60009182526020808320909101546001600160a01b0316835282019290925260400190206002015460ff1615610e4d5781610e498161285a565b9250505b600101610dee565b506000816001600160401b03811115610e7057610e70611f3d565b604051908082528060200260200182016040528015610e99578160200160208202803683370190505b5090506000805b600654811015610f62576004600060068381548110610ec157610ec1612754565b60009182526020808320909101546001600160a01b0316835282019290925260400190206002015460ff1615610f5a5760068181548110610f0457610f04612754565b9060005260206000200160009054906101000a90046001600160a01b0316838381518110610f3457610f34612754565b6001600160a01b039092166020928302919091019091015281610f568161285a565b9250505b600101610ea0565b50909392505050565b7ff7a450ef335e1892cb42c8ca72e7242359d7711924b75db5717410da3f614aa3610f9581611c4c565b6001600160a01b038616610fbc5760405163d92e233d60e01b815260040160405180910390fd5b6000849003610fde5760405163ecd7b0d160e01b815260040160405180910390fd5b6001600160a01b03861660009081526002602052604090205460ff1615611018576040516370bc3e8560e01b815260040160405180910390fd5b6001600160a01b038616600081815260026020908152604091829020805460ff19166001179055815160a0810183529283528151601f880182900482028101820190925286825282810191908890889081908401838280828437600092019190915250505090825250604080516020601f8701819004810282018101909252858152918101919086908690819084018382808284376000920182905250938552505060016020808501829052426040958601526001600160a01b038c811685526003825294909320855181546001600160a01b03191695169490941784559184015191830191611109915082612663565b506040820151600282019061111e9082612663565b50606082015160038201805460ff1916911515919091179055608090910151600490910155600580546001810182556000919091527f036b6384b5eca791c62761152d0c79bb0604c104a5fb6f4eb0703f3154bb3db00180546001600160a01b0319166001600160a01b0388169081179091556040517fb0b9c23a07b06a1eac7599a8c64ab61e22ff9e5657ad9967fc200558bae194aa906111c7908890889088908890612722565b60405180910390a2505050505050565b600080805b6005548110156112e5576000600582815481106111fb576111fb612754565b60009182526020808320909101546001600160a01b0316808352600290915260409091205490915060ff16801561124e57506001600160a01b0381166000908152600360208190526040909120015460ff165b156112db57604051630140194b60e41b81526001600160a01b0382169063140194b090611283908a908a908a9060040161276a565b600060405180830381865afa9250505080156112c157506040513d6000823e601f3d908101601f191682016040526112be9190810190612798565b60015b6112cb57506112dd565b80516112d79085612847565b9350505b505b6001016111dc565b50949350505050565b60008051602061292683398151915261130681611c4c565b610939611da5565b600460205260009081526040902080548190611329906124d4565b80601f0160208091040260200160405190810160405280929190818152602001828054611355906124d4565b80156113a25780601f10611377576101008083540402835291602001916113a2565b820191906000526020600020905b81548152906001019060200180831161138557829003601f168201915b5050505050908060010180546113b7906124d4565b80601f01602080910402602001604051908101604052809291908181526020018280546113e3906124d4565b80156114305780601f1061140557610100808354040283529160200191611430565b820191906000526020600020905b81548152906001019060200180831161141357829003601f168201915b5050505060028301546003840154600485018054949560ff9093169491935090611459906124d4565b80601f0160208091040260200160405190810160405280929190818152602001828054611485906124d4565b80156114d25780601f106114a7576101008083540402835291602001916114d2565b820191906000526020600020905b8154815290600101906020018083116114b557829003601f168201915b5050505050905085565b6000918252602082815260408084206001600160a01b0393909316845291905290205460ff1690565b60606000805b6005548110156115b957600260006005838154811061152c5761152c612754565b60009182526020808320909101546001600160a01b0316835282019290925260400190205460ff16801561159e5750600360006005838154811061157257611572612754565b60009182526020808320909101546001600160a01b0316835282019290925260400190206003015460ff165b156115b157816115ad8161285a565b9250505b60010161150b565b506000816001600160401b038111156115d4576115d4611f3d565b6040519080825280602002602001820160405280156115fd578160200160208202803683370190505b5090506000805b600554811015610f6257600260006005838154811061162557611625612754565b60009182526020808320909101546001600160a01b0316835282019290925260400190205460ff1680156116975750600360006005838154811061166b5761166b612754565b60009182526020808320909101546001600160a01b0316835282019290925260400190206003015460ff165b1561170557600581815481106116af576116af612754565b9060005260206000200160009054906101000a90046001600160a01b03168383815181106116df576116df612754565b6001600160a01b0390921660209283029190910190910152816117018161285a565b9250505b600101611604565b600681815481106108ff57600080fd5b60606000805b6008548110156117875760076008828154811061174257611742612754565b906000526020600020016040516117599190612873565b9081526040519081900360200190205460ff161561177f578161177b8161285a565b9250505b600101611723565b506000816001600160401b038111156117a2576117a2611f3d565b6040519080825280602002602001820160405280156117d557816020015b60608152602001906001900390816117c05790505b5090506000805b600854811015610f62576007600882815481106117fb576117fb612754565b906000526020600020016040516118129190612873565b9081526040519081900360200190205460ff16156118fc576008818154811061183d5761183d612754565b906000526020600020018054611852906124d4565b80601f016020809104026020016040519081016040528092919081815260200182805461187e906124d4565b80156118cb5780601f106118a0576101008083540402835291602001916118cb565b820191906000526020600020905b8154815290600101906020018083116118ae57829003601f168201915b50505050508383815181106118e2576118e2612754565b602002602001018190525081806118f89061285a565b9250505b6001016117dc565b6008818154811061191457600080fd5b90600052602060002001600091509050805461192f906124d4565b80601f016020809104026020016040519081016040528092919081815260200182805461195b906124d4565b80156119a85780601f1061197d576101008083540402835291602001916119a8565b820191906000526020600020905b81548152906001019060200180831161198b57829003601f168201915b505050505081565b6000828152602081905260409020600101546119cb81611c4c565b61063d8383611ce8565b600360205260009081526040902080546001820180546001600160a01b039092169291611a01906124d4565b80601f0160208091040260200160405190810160405280929190818152602001828054611a2d906124d4565b8015611a7a5780601f10611a4f57610100808354040283529160200191611a7a565b820191906000526020600020905b815481529060010190602001808311611a5d57829003601f168201915b505050505090806002018054611a8f906124d4565b80601f0160208091040260200160405190810160405280929190818152602001828054611abb906124d4565b8015611b085780601f10611add57610100808354040283529160200191611b08565b820191906000526020600020905b815481529060010190602001808311611aeb57829003601f168201915b505050506003830154600490930154919260ff1691905085565b600080516020612926833981519152611b3a81611c4c565b6001600160a01b0389166000908152600460205260408120600301549003611b755760405163ec3b3a3760e01b815260040160405180910390fd5b6001600160a01b0389166000908152600460205260409020611b98888a8361255e565b506001600160a01b0389166000908152600460205260409020600101611bbf86888361255e565b506001600160a01b038916600090815260046020819052604090912060028101805460ff191687151517905501611bf783858361255e565b50886001600160a01b03167f4fe472d8720ab29238aa105e789c64048385f6617d080c1958d58d83c40849aa8989898989604051611c399594939291906128e9565b60405180910390a2505050505050505050565b6109398133611de0565b6000611c6283836114dc565b611ce0576000838152602081815260408083206001600160a01b03861684529091529020805460ff19166001179055611c983390565b6001600160a01b0316826001600160a01b0316847f2f8788117e7eff1d82e926ec794901d17c78024a50270940304540a733656f0d60405160405180910390a45060016104e5565b5060006104e5565b6000611cf483836114dc565b15611ce0576000838152602081815260408083206001600160a01b0386168085529252808320805460ff1916905551339286917ff6391f5c32d9c69d2a47ea670b442974b53935d1edc7fd64eb21e047a839171b9190a45060016104e5565b611d5b611e21565b6001805460ff191690557f5db9ee0a495bf2e6ff9c91a7834c1ba4fdd244a5e8aa4e537bd38aeae4b073aa335b6040516001600160a01b03909116815260200160405180910390a1565b611dad611e46565b6001805460ff1916811790557f62e78cea01bee320cd4e420270b5ea74000d11b0c9f74754ebdbfc544b05a25833611d88565b611dea82826114dc565b611e1d5760405163e2517d3f60e01b81526001600160a01b03821660048201526024810183905260440160405180910390fd5b5050565b60015460ff16611e4457604051638dfc202b60e01b815260040160405180910390fd5b565b60015460ff1615611e445760405163d93c066560e01b815260040160405180910390fd5b600060208284031215611e7c57600080fd5b81356001600160e01b031981168114611e9457600080fd5b9392505050565b60008083601f840112611ead57600080fd5b5081356001600160401b03811115611ec457600080fd5b602083019150836020828501011115611edc57600080fd5b9250929050565b60008060208385031215611ef657600080fd5b82356001600160401b03811115611f0c57600080fd5b611f1885828601611e9b565b90969095509350505050565b600060208284031215611f3657600080fd5b5035919050565b634e487b7160e01b600052604160045260246000fd5b604051601f8201601f191681016001600160401b0381118282101715611f7b57611f7b611f3d565b604052919050565b60006020808385031215611f9657600080fd5b82356001600160401b0380821115611fad57600080fd5b818501915085601f830112611fc157600080fd5b813581811115611fd357611fd3611f3d565b611fe5601f8201601f19168501611f53565b91508082528684828501011115611ffb57600080fd5b8084840185840137600090820190930192909252509392505050565b80356001600160a01b038116811461202e57600080fd5b919050565b6000806040838503121561204657600080fd5b8235915061205660208401612017565b90509250929050565b60008060008060008060006080888a03121561207a57600080fd5b61208388612017565b965060208801356001600160401b038082111561209f57600080fd5b6120ab8b838c01611e9b565b909850965060408a01359150808211156120c457600080fd5b6120d08b838c01611e9b565b909650945060608a01359150808211156120e957600080fd5b506120f68a828b01611e9b565b989b979a50959850939692959293505050565b60006020828403121561211b57600080fd5b611e9482612017565b60008060006040848603121561213957600080fd5b61214284612017565b925060208401356001600160401b0381111561215d57600080fd5b61216986828701611e9b565b9497909650939450505050565b60008151808452602080850194506020840160005b838110156121b05781516001600160a01b03168752958201959082019060010161218b565b509495945050505050565b604080825283519082018190526000906020906060840190828701845b828110156121f4578151845292840192908401906001016121d8565b50505083810360208501526122098186612176565b9695505050505050565b602081526000611e946020830184612176565b60008060008060006060868803121561223e57600080fd5b61224786612017565b945060208601356001600160401b038082111561226357600080fd5b61226f89838a01611e9b565b9096509450604088013591508082111561228857600080fd5b5061229588828901611e9b565b969995985093965092949392505050565b6000815180845260005b818110156122cc576020818501810151868301820152016122b0565b506000602082860101526020601f19601f83011685010191505092915050565b60a0815260006122ff60a08301886122a6565b828103602084015261231181886122a6565b90508515156040840152846060840152828103608084015261233381856122a6565b98975050505050505050565b600060208083016020845280855180835260408601915060408160051b87010192506020870160005b8281101561239657603f198886030184526123848583516122a6565b94509285019290850190600101612368565b5092979650505050505050565b602081526000611e9460208301846122a6565b6001600160a01b038616815260a0602082018190526000906123da908301876122a6565b82810360408401526123ec81876122a6565b94151560608401525050608001529392505050565b60008060008060008060008060a0898b03121561241d57600080fd5b61242689612017565b975060208901356001600160401b038082111561244257600080fd5b61244e8c838d01611e9b565b909950975060408b013591508082111561246757600080fd5b6124738c838d01611e9b565b909750955060608b01359150811515821461248d57600080fd5b90935060808a013590808211156124a357600080fd5b506124b08b828c01611e9b565b999c989b5096995094979396929594505050565b8183823760009101908152919050565b600181811c908216806124e857607f821691505b60208210810361250857634e487b7160e01b600052602260045260246000fd5b50919050565b601f8211156108ea576000816000526020600020601f850160051c810160208610156125375750805b601f850160051c820191505b8181101561255657828155600101612543565b505050505050565b6001600160401b0383111561257557612575611f3d565b6125898361258383546124d4565b8361250e565b6000601f8411600181146125bd57600085156125a55750838201355b600019600387901b1c1916600186901b178355612617565b600083815260209020601f19861690835b828110156125ee57868501358255602094850194600190920191016125ce565b508682101561260b5760001960f88860031b161c19848701351681555b505060018560011b0183555b5050505050565b81835281816020850137506000828201602090810191909152601f909101601f19169091010190565b60208152600061265b60208301848661261e565b949350505050565b81516001600160401b0381111561267c5761267c611f3d565b6126908161268a84546124d4565b8461250e565b602080601f8311600181146126c557600084156126ad5750858301515b600019600386901b1c1916600185901b178555612556565b600085815260208120601f198616915b828110156126f4578886015182559484019460019091019084016126d5565b50858210156127125787850151600019600388901b60f8161c191681555b5050505050600190811b01905550565b60408152600061273660408301868861261e565b828103602084015261274981858761261e565b979650505050505050565b634e487b7160e01b600052603260045260246000fd5b6001600160a01b038416815260406020820181905260009061278f908301848661261e565b95945050505050565b600060208083850312156127ab57600080fd5b82516001600160401b03808211156127c257600080fd5b818501915085601f8301126127d657600080fd5b8151818111156127e8576127e8611f3d565b8060051b91506127f9848301611f53565b818152918301840191848101908884111561281357600080fd5b938501935b8385101561233357845182529385019390850190612818565b634e487b7160e01b600052601160045260246000fd5b808201808211156104e5576104e5612831565b60006001820161286c5761286c612831565b5060010190565b6000808354612881816124d4565b6001828116801561289957600181146128ae576128dd565b60ff19841687528215158302870194506128dd565b8760005260208060002060005b858110156128d45781548a8201529084019082016128bb565b50505082870194505b50929695505050505050565b6060815260006128fd60608301878961261e565b828103602084015261291081868861261e565b9150508215156040830152969550505050505056fea49807205ce4d355092ef5a8a18f56e8913cf4a201fbe287825b095693c21775a26469706673582212200ada70b7045249cc44fa968dde8f4d1c636b5fe9ebe327099b515fed60c9700b64736f6c63430008170033",
  "linkReferences": {},
  "deployedLinkReferences": {}
}